:100000000C9486030C94CD030C94CD030C94CD0377
:100010000C94CD030C94CD030C94CD030C94CD0320
:100020000C94CD030C94CD030C94A2280C94742949
:100030000C94271E0C94CD030C94CD030C94CD038B
:100040000C94CD030C94CD030C94CD030C94CD03F0
:100050000C94CD030C94741E0C94CD030C94CD031E
:100060000C94CD030C94CD030C94CD030C94CD03D0
:100070000C94CD030C94CD030C94CD030C94CD03C0
:100080000C94CD030C94CD030C94CD030C94CD03B0
:100090000C94CD030C94CD030C94CD030C94CD03A0
:1000A0000C94CD030C94CD030C94CD03361336136E
:1000B00068136813AE13CC13EC14EC14D7136C1440
:1000C0007D147D14DC14EC14EC14E5149A159A15C7
:1000D000AC15AC15A315AC15AC15AC159A159A1545
:1000E000A815AC15AC15A815E129082A002B082A7B
:1000F000002B542A772A002BCE2ADD2A0A0025302D
:10010000313662003A200025303258000A722F63DF
:100110002030313233343536373839414243444563
:10012000460A006D63703233303137206465617484
:100130007461636865642121210A006D6370323344
:100140003031372061747461636865642121210A4C
:100150000035001E001F00200021002200230000A7
:100160000024002500260027002D002E002B00145F
:10017000001A000800150017004A004D001C001866
:10018000000C0012001300310039000400160007B3
:100190000009000A00000000000B000D000E000F17
:1001A0000033003400E1001D001B000600190005AB
:1001B000000041004211001000360037003800E511
:1001C00000E000E300E20050004F000000000000EB
:1001D000000000520051002F003000000000002AF3
:1001E000002C004C0000002900E300E20000004B5E
:1001F000004E00E5002800000000003A003B003CF3
:10020000003D003E00010001003F0040004100426F
:10021000004300440001001E021F022F0230023181
:10022000020100010052005F0060006100540045BF
:1002300000010020022102260227023500000000F2
:100240000051005C005D005E005500580001002276
:100250000223022F00300035020100010024025960
:10026000005A005B0056006700DE5C0100010001DF
:1002700000010000000000000000006200000063B8
:1002800000570000000000CA5CC95C01000100C307
:100290005C0100000052005000000051004F0000BF
:1002A0000001000100010001000100010001000146
:1002B0000001000100010001000100010001000136
:1002C000000100F0000100010001000100010052E6
:1002D00000010001000100010001000100F200F135
:1002E00000F300010000000000500051004F000129
:1002F000000100AE00010001000100010001000149
:10030000000100010001000100AC00AB0001000190
:1003100000010001000100F400F5000000000000F1
:10032000000000A900AA00A80001000100000001CF
:1003300000010001000100010001000100010001B5
:100340000001000100B600000044454255473A2034
:1003500064697361626C65642E0A004445425547C6
:100360003A20656E61626C65642E0A006261636B9F
:100370006C6967687420737465703A2025750A008B
:100380006261636B6C696768742064697361626C35
:10039000650A006261636B6C6967687420656E61F1
:1003A000626C650A006261636B6C696768742074D3
:1003B0006F67676C653A2025750A006261636B6C34
:1003C000696768742064656372656173653A2025A6
:1003D000750A006261636B6C6967687420696E639B
:1003E00072656173653A2025750A00556E69636F01
:1003F000646520696E707574206D6F646520736527
:100400007420746F3A2025750A00556E69636F6415
:100410006520696E707574206D6F646520696E6902
:100420007420746F3A2025750A000A00253032586E
:1004300020006B6579626F6172645F7265706F72C4
:10044000743A20000A0025303258006B6579626FDB
:100450006172645F7365745F6C65643A2000646503
:100460006C5F6B65795F6269743A2063616E2774B3
:100470002064656C3A20253032580A006164645F5C
:100480006B65795F6269743A2063616E27742061DD
:1004900064643A20253032580A00646F6E652E0A73
:1004A00000626F6F746D61676963207363616E3A98
:1004B000202E2E2E2000290A002575002F002575DC
:1004C000005D2800256400200025640020002564CC
:1004D0000020002564007C0025303258006D6F75C7
:1004E00073656B6579205B62746E7C782079207609
:1004F00020685D287265702F61636C293A205B006B
:100500005B735D004B6579626F6172642073746127
:1005100072742E0A005B575D005B535D005B525D99
:10052000005B445D005B435D000403300000002875
:10053000034500720067006F0044006F00780020E0
:1005400000370036002000220048006F007400448D
:10055000006F00780022000000220341006C007050
:100560000061006300610020004B006500790062BB
:10057000006F006100720064007300000004030952
:100580000409025B00030100A0FA09040000010352
:10059000010100092111010001224000070581032A
:1005A00008000A09040100010300000009211101EB
:1005B000000122BC000705820320000A0904020092
:1005C0000203000000092111010001222200070599
:1005D000830320000107050303200001120110011D
:1005E000000000084B410100010001020301063137
:1005F000FF0974A1010975150026FF0095207508F3
:1006000081020976150026FF00952075089102C029
:1006100005010902A10185020901A10005091901CD
:1006200029051500250195057501810295017503C0
:1006300081010501093009311581257F9502750871
:10064000810609381581257F950175088106050CFD
:100650000A38021581257F950175088106C0C005FD
:10066000010980A101850319012AB700150126B7E8
:1006700000950175108100C0050C0901A1018504D8
:1006800019012AA002150126A0029501751081000A
:10069000C005010906A1018505050719E029E7152F
:1006A0000025019508750181020507190029EF153C
:1006B00000250195F07501810205081901290595AC
:1006C0000575019102950175039101C005010906A7
:1006D000A101050719E029E7150025019508750115
:1006E00081029501750881010507190029FF150090
:1006F00026FF009506750881000508190129059552
:100700000575019102950175039101C011241FBE69
:10071000CFEFDAE0DEBFCDBF04B603FE27C0809185
:10072000EC029091ED02A091EE02B091EF028730C1
:10073000904BA740B04BD1F41092EC021092ED0216
:100740001092EE021092EF0214BE84B7877F84BF2E
:100750000FB6F894A895809160008861809360003E
:10076000109260000FBEE0E0F8E3099511E0A0E010
:10077000B1E0EAEFF7E502C005900D92A438B107A9
:10078000D9F722E0A4E8B1E001C01D92AC3EB20767
:10079000E1F70E94C8250C94FB2B0C940000FF93FA
:1007A000EF93E0918401F0918501309709F009956C
:1007B000EF91FF910895FC018591803011F0EFDFFA
:1007C000FBCF0895FF27E0E230E247FF0CC04195E0
:1007D00097FF09C0EDE26095709580959095611D39
:1007E000711D811D911D27FF02C0219530E350E24C
:1007F000AA27660F771F881F991FAA1FA41710F03A
:10080000A41B63955A95A9F7AA3008F0A95FA05DCB
:10081000AF93F395611571058105910541F7ED32AF
:1008200011F4EF93F395F21718F43F93F395FBCF80
:100830008F91B5DFFA95E1F70895E991F9918591E6
:10084000803021F0853219F0AADFF9CF089520E039
:10085000E89455915532C1F3503311F46894559191
:100860005A3348F4505390F3220F022E220F220FD6
:10087000200D250FF4CF0EF42195899199915336CF
:1008800019F3533729F1533559F1BC0188279927BA
:10089000E8945C3621F48991999168945591543685
:1008A00039F446EF7EF077FF0DC08FEF9FEF0AC05F
:1008B00055374AE039F0583540E121F0523642E0F0
:1008C00009F00895FF93EF937DDFEF91FF91B7CF8C
:1008D000FF93EF93FC0181918030B9F360DFFBCF90
:1008E000FF93EF9368DFF1CFDF93CF93CDB7DEB700
:1008F0002596A3DFCF91DF91089580B38C7080BBE4
:1009000081B38C7081BB0C94E00684B1807F84B984
:1009100085B18F6085B98AB1837F8AB98BB18C60CC
:100920008BB93E98469A0C94260708950C9495042A
:100930000C9495040E947D040E948504EAEDF1E088
:1009400086E891E011921192DC012EE01D92215077
:10095000E9F70E9621E08A3D9207A1F70C947F08F3
:100960000E947D040E948504EAEDF1E0118210826C
:1009700013821282158214821782168211861086C3
:100980001386128608952EE0829FC0011124FC0177
:10099000EA57FE4F20E030E040E050E061E070E0D8
:1009A0009081992319F09150908309C0CB01022EB8
:1009B00002C0880F991F0A94E2F7482B592B2F5F2A
:1009C0003F4F31962E30310559F7CA010895CF9324
:1009D0002EE0629FB001112420E030E0A1E0B0E001
:1009E000C5E0AD01022E02C0440F551F0A94E2F784
:1009F00048235923452B31F0FB01E20FF31FEA573F
:100A0000FE4FC0832F5F3F4F2E30310551F7CF91FE
:100A10000895CF92DF92EF92FF920F931F93CF939F
:100A20000E9402078AEDE82E81E0F82EC0E0C33074
:100A300091F038F4C13091F0C23099F4859A8D98D4
:100A400012C0C43029F0C53061F4809A88980BC078
:100A5000819A899808C0849A8C9805C0869A8E9845
:100A600002C0879A8F988C2F0E94E40680EA8A95AC
:100A7000F1F78C2F0E94C3046C010E945C07282FA1
:100A800030E0369903C000E810E002C000E010E05A
:100A90004B9903C080E091E002C080E090E0082B19
:100AA000192B4A9903C080E092E002C080E090E0F8
:100AB000082B192B1B9903C040E054E002C040E012
:100AC00050E0042B152B1A9903C060E078E002C0B7
:100AD00060E070E0062B172B199903C080E090E1CD
:100AE00002C080E090E0082B192B189903C040E069
:100AF00050E202C040E050E0F70180819181042B78
:100B0000152B022B132B082719270C211D21082731
:100B100019276C2F802791270E94E704F701019382
:100B200011937F010E947D04CF5FC63009F07FCF13
:100B30000E948B0881E0CF911F910F91FF90EF9061
:100B4000DF90CF900895E82FF0E0EE0FFF1FE65200
:100B5000FE4F808191810895CF92DF92EF92FF92B4
:100B60000F931F93CF93DF938CE091E00E94DB0300
:100B70008AEDE82E81E0F82EC0E0D0E097E0C92EA3
:100B800091E0D92E0EEF10E0DF93CF93DF92CF925A
:100B90000E94740484E091E00E94DB03F7018191DC
:100BA00091917F010E941F1C9F938F931F930F931E
:100BB0000E9474048CEF90E00E94DB0321968DB7B5
:100BC0009EB708960FB6F8949EBF0FBE8DBFC63075
:100BD000D105D1F6DF91CF911F910F91FF90EF904A
:100BE000DF90CF9008951092B9008CE08093B80008
:100BF0000895EF92FF920F931F93CF93DF93182FD7
:100C0000EB011092BC0084EA8093BC000E94591E44
:100C10007C018091BC0087FD0EC0CF3F8FEFD807CD
:100C2000C1F30E94591E8E199F098C179D0788F3E6
:100C30008EEF9FEF2EC08091B900887F883041F001
:100C40008091B900887F803119F08FEF9FEF21C02C
:100C50001093BB0084E88093BC000E94591E8C0155
:100C60008091BC0087FD0CC0CF3F8FEFD807C1F348
:100C70000E94591E801B910B8C179D0788F3D8CFBB
:100C80008091B900887F883111F08034F1F680E0DE
:100C900090E0DF91CF911F910F91FF90EF90089519
:100CA0000F931F93CF93DF93EB018093BB0084E8F6
:100CB0008093BC000E94591E8C018091BC0087FD6E
:100CC0000EC0CF3F8FEFD807C1F30E94591E801B83
:100CD000910B8C179D0788F38EEF9FEF0CC020912E
:100CE000B900287F81E090E0283211F480E090E0A4
:100CF000919581959109DF91CF911F910F91089561
:100D00000F931F93CF93DF93EC0184E88093BC0093
:100D10000E94591E8C018091BC0087FD0EC0CF3F00
:100D20008FEFD807C1F30E94591E801B910B8C17BF
:100D30009D0788F38EEF9FEF03C08091BB0090E08A
:100D4000DF91CF911F910F91089584E98093BC00AA
:100D500008951092E6010E94F3052FEF83ED90E3D2
:100D6000215080409040E1F700C0000080E00895ED
:100D70001F93CF93DF939091E6019923E1F0D62F53
:100D8000182F64E670E080E40E94F905C82F8111F5
:100D90000EC064E670E0812F0E945006C82F8111BA
:100DA00006C064E670E08D2F0E945006C82F0E9496
:100DB000A5068C2F01C080E0DF91CF911F9108958F
:100DC0006FE381E00C94B80661E070E001C0660F4B
:100DD0008A95EAF7609581E00C94B8066FE780E0A9
:100DE0000E94B8066FE782E00E94B8066FE78CE0C9
:100DF0000E94B8066FEF81E00E94B80660EC83E1C4
:100E00000C94B80664E670E080E40E94F905811154
:100E100010C00E94A5068091E601811116C081E0F4
:100E20008093E6010E94EE060E9488158BE391E014
:100E30000AC08091E601882341F01092E6010E94E9
:100E4000881583E291E00C94DB0308950E94A906C3
:100E50000C9402070F931F93CF93DF939091E601B9
:100E6000992321F18B01D82F64E670E080E40E9481
:100E7000F905C82F811116C064E670E08D2F0E941D
:100E80005006C82F81110EC064E670E081E40E9414
:100E9000F905C82F811106C084E690E00E94800603
:100EA000F80180830E94A5068C2F01C080E0DF91AD
:100EB000CF911F910F910895CF93DF931F92CDB7DC
:100EC000DEB71982BE016F5F7F4F82E10E942A0761
:100ED00089810F90DF91CF910895279A2F98259AB5
:100EE0002D9A269A2E9A249A2C9A259A2D982FEF8D
:100EF00080E792E0215080409040E1F700C0000080
:100F0000269A2E982FEF80E792E021508040904063
:100F1000E1F700C00000249A2C982FEF80E792E0C0
:100F2000215080409040E1F700C00000259A2D9AA2
:100F30002FEF80E792E0215080409040E1F700C021
:100F40000000269A2E9A2FEF80E792E021508040F1
:100F50009040E1F700C00000249A2C9A279A2F9A1B
:100F6000259A2D98269A2E98249A2C982FE782E479
:100F700090E1215080409040E1F700C00000279AA6
:100F80002F98259A2D9A269A2E9A249A2C9A08956B
:100F90000E946D070C9496049C013A9521153F41DF
:100FA00038F5DC01AA27B270AC01442754709C01CB
:100FB0002227387094FF0FC090FF02C080E101C06B
:100FC00080E0AB2B09F08062452B09F08064232B75
:100FD00069F080680BC0892F8170AB2B09F08260AB
:100FE000452B09F08460232B09F08860FB010994EC
:100FF0000895CF93DF93EC01805E9109089710F07C
:10100000209719F462EF72E102C060E675E1CE014B
:101010000E94CC078C2FDF91CF910C94CD11CF93F0
:10102000DF93EC010E947712CE01805E9109089750
:1010300010F0209719F469EF72E102C067E675E1DC
:10104000CE01DF91CF910C94CC07CF93DF93EC01CD
:101050000E94F907CE01DF91CF910C940F0881E037
:10106000089581E008950C94310808950C94350892
:101070001F93CF93DF9300D000D01F92CDB7DEB780
:1010800049835A836B833091FE0189819A813111A2
:1010900014C0662359F0222349F00E94D31A182F56
:1010A000682F89819A810E947C1A03C00E94A71A26
:1010B000182F69817A81812F04C00E94D31A698117
:1010C0007A810F900F900F900F900F90DF91CF913A
:1010D0001F910C942509FC01262F408151816281CA
:1010E000738184810C943808CF93DF93EC0160E026
:1010F0000E946B08BE01DF91CF910C9436080E94CC
:10110000321C811102C00E94E51C0E940C0D0E943D
:10111000310D0C94C8070C949804282F2F7041F0BF
:10112000822F90E02A3010F44D9608950697089586
:1011300087E290E0089508950C949B0881E008955B
:101140000C949E08CF93C82F0E949C088C2F0E945D
:10115000A008CF91089508950E9488150E94AB08B9
:101160002FEF84E39CE0215080409040E1F700C0E5
:1011700000000C949A1E0F931F93CF93DF93EC0102
:1011800061E00E946B088C01BE010E943308882335
:1011900009F450C0BE01C8010E94750C882309F4EF
:1011A00049C0BE01C8010E94CE0D882309F442C087
:1011B000BE01C8010E945E0E8823E1F1BE01C80194
:1011C0000E949F0E8823B1F1BE01C8010E94CA0F80
:1011D000882381F18A81882331F101308CE5180759
:1011E00051F00E3D8CE51807D9F001151C45D9F4D6
:1011F0000E94AC081FC080919B02C82FC095C1708F
:10120000C0FB80F980939B02CC2329F08BE593E00F
:101210000E94DB030FC089E493E00E94DB030BC054
:101220000E94E51C07C0CE01DF91CF911F910F9165
:101230000C942F08C0E08C2FDF91CF911F910F915C
:10124000089580E090E00895089524E5829FC0010C
:101250001124FC012EE0729FE00DF11D1124E60F18
:10126000F11DEE0FFF1FEF5AFE4F859194910895E7
:10127000880F991FFC01E459FC4F859194910895C2
:10128000CF93DF930E9425090E94580AEC01811533
:10129000904508F041C0C11580E4D80708F0D1C0DE
:1012A000C83ED10510F5C03ED10508F0FDC0C83AD2
:1012B000D10578F4C53AD10508F0A2C0C130D105F6
:1012C00009F4F2C008F4EEC0C430D10508F0ECC057
:1012D000E9C0CF3BD10508F49BC0C03CD10508F460
:1012E000E1C0CE01805C91099EC0C11590E2D90792
:1012F00058F4C11521E0D20708F0D6C0C03FD1058F
:1013000008F4D0C0D065D0C0C11580E3D80708F07C
:101310008EC0CE019F7087C0C11595E5D90708F032
:1013200043C0C11524E5D20708F0A2C0C11582E56B
:10133000D80708F5C11591E5D90708F085C0CE0199
:1013400074E0969587957A95E1F783709C2F93705A
:1013500021E030E002C0220F331F9A95E2F73C688B
:10136000382BCF70C695C69580E2C89FE001112446
:10137000C22BD32B99C09E01237033278C2F8695C7
:101380008695C115D34508F064C0C1E0D0E002C025
:10139000CC0FDD1F2A95E2F720E2829FC0011124C5
:1013A000C82BD92BDC6880C0C11529E5D207A0F471
:1013B000C11588E5D80708F060C0C11596E5D907C2
:1013C00008F070C08C2F0E94EC0A8F71C82FD0E0FB
:1013D000DC2FCC27D06268C0C1152AE5D20708F4FB
:1013E00051C0CE0190568115904208F05BC08D2F00
:1013F0008F710E94EC0ADD27D0628F71D82B54C008
:10140000C55AD0E0CF5BDE4FC881D0E0D0644CC07D
:10141000C85AD0E0CC0FDD1FCD5EDE4F0990D881D9
:10142000C02DD46441C00E943809EC013DC0CE01FA
:101430009927D3FF03C0EC01D86C36C0EC01D06C07
:1014400033C0DF70D06A30C0DC2FCC27C16FD06AC8
:101450002BC0C1E0D0E002C0CC0FDD1F2A95E2F71F
:1014600020E2829FC0011124C82BD92BDA681CC04E
:10147000DC2FCC27C46FD06A17C0DC2FCC27C06FFD
:10148000D06A12C08C2F8F700E94EC0A94E0D6951F
:10149000C7959A95E1F7CF70D0E0DC2FCC27D069C3
:1014A000C82B02C0C0E0D0E0CE01DF91CF910895FB
:1014B0008238910569F1B0F48133910509F46DC06A
:1014C00048F48932910509F463C08A32910509F420
:1014D00069C008958533910509F455C08933910594
:1014E000B9F00895833E910569F138F4803E910585
:1014F000B1F0823E910509F10895863E9105A9F16A
:10150000873E9105B9F1843E910509F064C023C07E
:101510002091DD0220FD4FC021FD4DC00895809136
:10152000DD0280FD44C08091DE0280FF44C08091D6
:10153000DD0284FD42C083EE4DC08091DD0282FF5A
:1015400038C0F5CF8091DD0282FD33C08091DE028C
:1015500080FD31C0ECCF8091DE0281FF32C08091EE
:10156000DD0284FD2AC087EE35C08091DD0283FF55
:1015700026C0F5CF8091DD0283FD21C08091DE027F
:1015800081FD1FC0ECCF8091DD0285FD1CC01DC018
:101590008091DD0285FD19C016C08091DD0286FDB7
:1015A00016C017C08091DD0286FD13C010C089E30C
:1015B00011C082EE0FC080EE0DC080E00BC086EE41
:1015C00009C084EE07C089E205C085E303C08AE252
:1015D00001C081E390E008959091DD0292FF0DC07B
:1015E000282F2871283019F4877F846006C0282F9F
:1015F0002471243011F48B7F886093FF0DC0282F55
:101600002871283119F4877E846106C0282F24713F
:10161000243111F48B7E88612091DE0220FF0DC001
:10162000382F3871383019F4877F816006C0382F21
:101630003171313011F48E7F886021FF0DC0282F69
:101640002871283119F4877E816106C0282F217105
:10165000213111F48E7E886194FD877E08950E9469
:10166000321C811102C00E94E51C0E946D1C8093F7
:10167000D302282F26952695269530E02430310573
:1016800024F0877088618093D3028091D30280FF19
:1016900004C086958695869501C080E00C94AA0CBE
:1016A0002091D302822F869586958695482F50E00B
:1016B0004330510554F48F5F982F990F990F990F6C
:1016C000822F8770892B8093D3028091D30281600F
:1016D0008093D3020E94711C80919B0280FF11C0F5
:1016E0008091D3028695869586951F928F9383ED80
:1016F00093E09F938F930E9474040F900F900F902C
:101700000F908091D3028695869586950C94AA0CAD
:101710008091D302982F969596959695A1F0915E1B
:10172000990F990F990F8770892B8093D302887F27
:1017300091E009F490E08091D30290FB80F98093CE
:10174000D3020E94711C80919B0280FF11C0809186
:10175000D3028695869586951F928F938BEB93E0A7
:101760009F938F930E9474040F900F900F900F908F
:101770008091D3028695869586950C94AA0C8091CB
:10178000D30280FD1FC081608093D302813019F4A1
:1017900089E08093D3028091D3020E94711C8091D2
:1017A0009B0280FF08C083E993E09F938F930E9480
:1017B00074040F900F908091D3028695869586953C
:1017C0000C94AA0C08958091D30280FF14C08E7FE0
:1017D0008093D3020E94711C80919B0280FF08C0FD
:1017E00080E893E09F938F930E9474040F900F9072
:1017F00080E00C94AA0C0895CF93C091D302C170DD
:1018000080919B0280FF0CC01F92CF9385EA93E0EA
:101810009F938F930E9474040F900F900F900F90DE
:10182000CC2319F0CF910C94E30BCF910C94BF0B08
:101830009091D302892F8695869586958F5F8F71BB
:101840009770843038F4880F880F880F892B809325
:10185000D30202C09093D3028091D302887F91E09B
:1018600009F490E08091D30290FB80F98093D30239
:101870000E94711C80919B0280FF11C08091D30255
:101880008695869586951F928F938CE693E09F931D
:101890008F930E9474040F900F900F900F9080917F
:1018A000D3028695869586950C94AA0C843008F010
:1018B00083E09091D3029770282F220F220F220FDE
:1018C000922B9093D302987F21E009F420E090912D
:1018D000D30220FB90F99093D3020C94AA0C0E949F
:1018E000560C8091D3020C94711C9C01FB018281E7
:1018F000882349F12D3BFCE53F07C9F040F42B3B21
:10190000ECE53E0769F02C3B3C4561F008952F3B28
:101910009CE5390791F070F0203C3C4589F0089532
:1019200083E001C080E00E946F0C80E008950E9477
:10193000880BFBCF0E94500BF8CF0E94FC0BF5CF19
:101940000E94180CF2CF81E00895279A2F980895ED
:101950002F980895CF92DF92EF92FF92CF93C82FE6
:10196000843050F4811109C080918000877F80937A
:1019700080000E94A80C06C0C3E0809180008860AF
:10198000809380002C2F30E0AFEFBFEF0E949F2BA1
:1019900023E030E040E050E00E94772BC9012C3773
:1019A00064E1360728F469E070E00E944F2B29C0FB
:1019B000DA01C9018A50974DAF4FBF4F6627782F84
:1019C000892F9A2F25EF38E241E050E00E94772BD3
:1019D00069017A01CA01B9010E94332B9B01AC0154
:1019E000C701B6010E94332BBB27A92F982F872F41
:1019F000009721E0A207B10511F0BC0102C06FEF12
:101A00007FEF70938D0060938C00CF91FF90EF90EB
:101A1000DF90CF90089508950E94A50C8AE08093EE
:101A2000800089E1809381008FEF9FEF9093870082
:101A3000809386000C942F0BCF93DF9397FF0DC0FC
:101A4000FB012281222349F0EC010E94700DCE019E
:101A50009F770E94B10D0E949A0D81E0DF91CF9196
:101A600008958CE090E00E94B92B90E0A0E0B0E0F7
:101A70008093D4029093D502A093D602B093D7025C
:101A800080919B0280FF0EC08091D4021F928F93A1
:101A90008AE094E09F938F930E9474040F900F90BC
:101AA0000F900F9008956091D4028CE090E00C9418
:101AB000C72B8093D4020E94530D80919B0280FF1C
:101AC0000EC08091D4021F928F938BEE93E09F9370
:101AD0008F930E9474040F900F900F900F900895B1
:101AE0000E94541B8093D8020E94671B8091D402ED
:101AF000813071F048F0823081F08430A1F486EEBC
:101B00000E94DF1288E10DC082EE0E94CD110BC051
:101B100088E193E00E94250806C082EE0E94CD1164
:101B200087E50E94DF128FE39CE90197F1F700C07F
:101B3000000008958091D402813039F040F0823065
:101B400031F0843051F488E206C08CE204C082EEA9
:101B50000E94771202C00E94DF128091D8020C947A
:101B6000641B0F931F93CF93DF938C01CCE0D0E0E5
:101B7000C8010C2E02C0969587950A94E2F78F70E3
:101B80000E948D080E94DF122497CC3F8FEFD80768
:101B900079F7DF91CF911F910F9108950F931F93C4
:101BA000CF93DF93EC018B01FB018281882351F0FD
:101BB0000E94541BCE01815E9C458530910510F436
:101BC0000E94590DB801CE01DF91CF911F910F9165
:101BD0000C941C0D0F931F93CF93DF93C62FD42F1C
:101BE000122FFC0182818823C9F06093E9010E94D1
:101BF000591E9093E8018093E70180E28C0F8830B2
:101C000008F057C0C77081E001C0880FCA95EAF795
:101C1000DF91CF911F910F910C94F2128091E90105
:101C2000681330C08091E7019091E8010E94651E21
:101C3000883C910538F500E20D0FCD17B9F080E230
:101C40008C0F883040F4C77081E001C0880FCA95BE
:101C5000EAF70E94F912083028F581E09D2F97706D
:101C600001C0880F9A95EAF70E94F212812F0E9414
:101C7000DF120830F0F4D77081E001C0880FDA95E8
:101C8000EAF70AC080E28C0F883098F4C77081E0D0
:101C900001C0880FCA95EAF7DF91CF911F910F918C
:101CA0000C94F912812FDF91CF911F910F910C9419
:101CB000DF12DF91CF911F910F9108959C01CB010D
:101CC000233F4CE53407F9F078F4283DFCE53F0765
:101CD000B9F0293D4CE5340711F1273D3C4531F57C
:101CE00026E241EE61EE1EC0253FFCE53F0799F07C
:101CF00070F0263F3C45D1F427E245EE66EE12C077
:101D000027E245EE0EC026E241EE60EE0BC027E270
:101D100045EE64EE07C026E241EE62EE03C028E223
:101D200041E065EE0E94EA0D80E00895FC018281A9
:101D3000882319F01092E901089581E00895CF9366
:101D4000DF93EC01FB018281882309F41FC1C230BB
:101D5000FCE5DF0708F41BC1C6319CE5D90738F064
:101D60009E012A5F3C452930310508F010C10E94D0
:101D70004F1C9093DE028093DD02C031ECE5DE075C
:101D800009F4C3C008F041C0C8308CE5D80709F495
:101D90009AC0F0F4C430ECE5DE0709F487C068F4BB
:101DA000C2308CE5D80709F477C0C330DC4509F0B0
:101DB000E3C08091DD02826076C0C630ECE5DE07CC
:101DC00009F46EC008F07BC08091DD0288606BC0B2
:101DD000CC308CE5D80709F485C068F4CA30ECE54E
:101DE000DE0709F474C008F079C00E94881580915C
:101DF000DD02806858C0CE308CE5D80709F476C083
:101E000008F07FC08091DD028BC0CB3FECE5DE07A0
:101E100009F44FC018F5C3318CE5D80709F47DC02B
:101E200078F4C131ECE5DE0709F473C0C231DC455A
:101E300009F0A2C00E9488158091DD028F7733C01F
:101E4000C5318CE5D80709F472C008F486C0CA3FD2
:101E5000DC4509F091C08091DE023EC0CF3FFCE539
:101E6000DF0709F45FC058F4CD3F9CE5D90709F4BA
:101E700044C008F43FC08091DE0282602DC0C130B2
:101E8000FDE5DF0709F475C008F45DC0C230DD452B
:101E900009F072C080E06EC08091DD02816003C0F5
:101EA0008091DD0280618093DD0266C08091DD0259
:101EB00011C08091DE0282608093DE025DC080915D
:101EC000DD028062F0CF8091DD028064ECCF8091F2
:101ED000DD0288608460E7CF8160EECF8091DD0213
:101EE0008E7FE1CF8091DD028D7FDDCF8091DD029D
:101EF000877FD9CF8091DE0218C08091DE028D7F6E
:101F0000DBCF8091DD028F7ECECF8091DD028F7D91
:101F1000CACF8091DD028F7BC6CF8091DD02877FA3
:101F20008B7FC1CF8091DE028D7F8E7FC5CF809168
:101F3000DD0282FB222720F991E0922790FB82F9B3
:101F400090FB83F9B0CF8091DE02982F909591702D
:101F50008E7F892B90FB81F9AFCF0E9488158091ED
:101F6000DD0287FB222720F991E0922790FB87F979
:101F70009ACF81E00E94E71C8091DD029091DE0201
:101F80000E94601C0E94881580E001C081E0DF9102
:101F9000CF910895CF93DF9386319C4541F5EB01B6
:101FA0000E94541B982F8A812091000130910101D9
:101FB000882379F09A7A81E009F480E08093EA013D
:101FC000911102C069E201C065E3C9010E94A41D2C
:101FD0000AC08091EA01811102C069E201C065E393
:101FE000C9010E94AF1D0E94A51B80E001C081E0D5
:101FF000DF91CF9108959093F0018093EF010895C0
:10200000E091EF01F091F001309721F00190F08123
:10201000E02D099480E00895EF92FF921F93CF93F3
:10202000DF93FC01A091EF01B091F001109709F44A
:1020300042C080911201882341F08091DD0287FF28
:1020400004C08081818385E08083EF011296ED9149
:10205000FC911397CE01099580919B0282FF2BC0C2
:1020600080FF04C082E394E00E94DB0318E08CE26E
:10207000E82E84E0F82E80919B0280FF0BC08881BF
:102080001F928F93FF92EF920E9474040F900F9013
:102090000F900F90115021961111EDCF80919B025E
:1020A00080FF09C08AE294E0DF91CF911F91FF90F9
:1020B000EF900C94DB03DF91CF911F91FF90EF9095
:1020C0000895E091EF01F091F001309739F022E0AE
:1020D000DC012C930480F581E02D09940895209172
:1020E000ED013091EE012817390771F09093EE0160
:1020F0008093ED01E091EF01F091F001309721F034
:102100000680F781E02D099408952091EB0130912C
:10211000EC012817390771F09093EC018093EB01E3
:10212000E091EF01F091F001309721F00084F1850A
:10213000E02D0994089585B7806885BF85B78068CC
:1021400085BF089508950C94A2100C94A3100C94CC
:10215000A2100C94A2100E949B100E94A7100C9435
:10216000A51081E008950C94B1100E94501E0E94A9
:102170009A040E940A1F0E942F0B0C94A910CF935F
:10218000C82F80919B0282FF1EC080FF04C08BE499
:1021900094E00E94DB0380919B0280FF0CC01F92A1
:1021A000CF9386E494E09F938F930E9474040F90E2
:1021B0000F900F900F9080919B0280FF04C084E4E9
:1021C00094E00E94DB038C2FCF910C94A2087F92A5
:1021D0008F929F92AF92BF92CF92DF92EF92FF9237
:1021E0000F931F93CF93DF93CDB7DEB72A970FB628
:1021F000F894DEBF0FBECDBF0E9409050E94B31048
:10220000811111C08FEF89838A831B820E94591E1E
:102210008160782F9D838C8349815A816B818D8168
:102220000E9499114FC042EFA42E41E0B42E00E06D
:1022300010E0702E802F0E94A3056C01F5018190A3
:1022400091905F01882699268114910431F40F5FE3
:102250001F4F0630110569F7D5CF80919B0281FD94
:102260000E94AC0580E0EE24E394F12C94012E2131
:102270003F21232B09F18E837F82CE20DF2081E056
:10228000CD2809F480E088870E94591E8160782F4C
:102290009A8789874E815F8168858A850E94991116
:1022A000000F111FF801EE50FE4F80819181E8264A
:1022B000F926F182E08206C08F5FEE0CFF1C8E30A3
:1022C000A9F6C5CF0E940B0D0E9448220E94001063
:1022D0009091F1018917C9F00E9400108093F101DB
:1022E0002A960FB6F894DEBF0FBECDBFDF91CF9117
:1022F0001F910F91FF90EF90DF90CF90BF90AF9024
:102300009F908F907F900C94BF102A960FB6F894F0
:10231000DEBF0FBECDBFDF91CF911F910F91FF9018
:10232000EF90DF90CF90BF90AF909F908F907F9075
:102330000895CF93DF93CDB7DEB72B970FB6F89400
:10234000DEBF0FBECDBF4F83588769877A878B87E3
:10235000DE01119686E0FD0111928A95E9F785E08C
:10236000FE01379601900D928A95E1F749815A81D5
:102370006B817C818D819E810E9441182B960FB6C6
:10238000F894DEBF0FBECDBFDF91CF910895FC0161
:10239000808191810E94151B0895CF93882309F4B1
:1023A000A4C0C82F8238C1F40E94001081FD9DC0D6
:1023B00069E380910001909101010E94A41D0E9497
:1023C000A51B2FEF81EE94E0215080409040E1F773
:1023D00000C0000069E319C0833801F50E940010B5
:1023E00080FD83C063E580910001909101010E940E
:1023F000A41D0E94A51B2FEF81EE94E02150804088
:102400009040E1F700C0000063E5809100019091E9
:1024100001010E94AF1DCF910C94A51B8438C1F41B
:102420000E94001082FD61C067E4809100019091DC
:1024300001010E94A41D0E94A51B2FEF81EE94E0D4
:10244000215080409040E1F700C0000067E4DDCFFC
:102450008CEF8C0F813AD0F46C2F80910001909119
:1024600001010E94021D882349F06C2F8091000118
:10247000909101010E94AF1D0E94A51B6C2F8091BD
:102480000001909101010E94A41DC5CF80E28C0F34
:10249000883048F4C77081E001C0880FCA95EAF718
:1024A0000E94571BB8CFEBE5EC0FE33040F4F0E0AF
:1024B000EE58FE4F808190E0CF910C946F10E8E5CC
:1024C000EC0FE73150F4F0E0EE0FFF1FEC5BFE4F36
:1024D00080819181CF910C948510C03F30F08C2F7A
:1024E0000E94CE20CF910C94BB21CF9108958823D8
:1024F00009F464C0823879F40E94001081FF5EC044
:1025000069E380910001909101010E94A41D0E9445
:10251000A51B69E310C08338B1F40E94001080FF4E
:102520004DC063E580910001909101010E94A41DBE
:102530000E94A51B63E580910001909101010E941A
:10254000AF1D0C94A51B843879F40E94001082FF03
:1025500035C067E480910001909101010E94A41DA3
:102560000E94A51B67E4E7CF9CEF980F913A10F407
:10257000682FE1CF90E2980F983050F4877091E087
:1025800001C0990F8A95EAF7892F0E945D1BD9CF68
:102590009BE5980F933020F480E090E00C946F104E
:1025A00098E5980F973120F480E090E00C94851026
:1025B000803F20F00E9436210C94BB210895CF93D8
:1025C000C82F0E94CD11C93349F42FEF87EE93E055
:1025D000215080409040E1F700C000008C2FCF9147
:1025E0000C947712882321F00E94571B0C94A51B92
:1025F0000895882321F00E945D1B0C94A51B08956B
:10260000CF92DF92EF92FF920F931F93CF93DF93BE
:102610007C01062FC72FFC01158112951F70D281F6
:10262000D1110E94771B0E944D1B882399F0DD2356
:1026300089F08C2F807F803421F080E2800F8830F9
:1026400048F082E00E94EF1B0E944D1B91E0D82EC3
:10265000D92601C0D12CCC2EC2948FE0C8228C2D5B
:1026600090E0FC01EA5AFF4F0C94992B8C2F807F4D
:10267000CF70882311F0C295C07FDD2399F0CC2361
:1026800009F485C180E2800F883010F0011104C088
:102690008C2F0E94571B03C08C2F0E946A1B0E9424
:1026A000A51B75C1802F0E947712CC2309F494C119
:1026B00080E2800F883010F0011104C08C2F0E943E
:1026C0005D1B03C08C2F0E94701B0E94A51B84C140
:1026D0008C2F807FCF70803211F0C295C07F002395
:1026E00019F00130C9F024C0DD2371F0112341F04D
:1026F000113031F40E948A1B8C2B0E94921B6CC1FA
:102700000E948A1B8C2B0EC0112319F0113009F482
:1027100063C10E949B1B1EC0DD2339F0123008F0FC
:102720005BC18C2F0E94F21257C1111155C112C00A
:10273000DD2319F01123A9F32AC1112359F009331C
:1027400009F036C1FFEF27EE83E0F15020408040D2
:10275000E1F72CC18C2F0E94F9123EC18C2F869577
:102760008695837019F0813061F036C1DD2321F048
:10277000802F9C2F937002C080E090E00E946F1029
:1027800033C1DD2321F0802F9C2F937002C080E0A5
:1027900090E00E94851028C1802FDD2319F00E944F
:1027A000CE2002C00E9436210E94BB211DC18C2F69
:1027B000837009F045C0D11113C1402F4295469551
:1027C0004770440F440F602F6F70862F90E0A0E099
:1027D000B0E0042E04C0880F991FAA1FBB1F0A94E3
:1027E000D2F704FF10C00FE010E020E030E004C09A
:1027F000000F111F221F331F4A95D2F70095109525
:102800002095309503C000E010E09801C695C6956C
:10281000C370BC01CD01602B712B822B932BC23076
:1028200049F058F4C13019F00E949219D9C00E94A1
:102830008019D6C00E94A419D3C00E947E19D0C0AE
:10284000DD2319F08C2F817001C08695882309F44F
:10285000C7C0402F429546954770440F440F602FE4
:102860006F70862F90E0A0E0B0E0042E04C0880FC7
:10287000991FAA1FBB1F0A94D2F704FF10C00FE0D4
:1028800010E020E030E004C0000F111F221F331FB2
:102890004A95D2F7009510952095309503C000E039
:1028A00010E09801C695C695C370BC01CD01602BA0
:1028B000712B822B932BC23049F058F4C13019F0A0
:1028C0000E94571A8DC00E94451A8AC00E94691A38
:1028D00087C00E94B81984C0CF70DD2339F08C2FD7
:1028E0000E94DE19802F0E94F2127AC0802F0E946F
:1028F000F9128C2F0E94FF1973C0023FF9F028F4DF
:10290000003F41F0013F99F03EC0033FF1F0043F2A
:1029100031F139C0DD2339F011115EC08C2F8F7178
:102920000E94241A59C0123008F056C0F7CFDD2398
:1029300039F08C2F8F710E94DE194EC0DD23C9F350
:102940008C2F8F710E94FF1947C0DD2329F08C2F37
:102950008F710E94C91940C00E94C4193DC0DD2377
:1029600049F0CF718C2F0E94DE1963E08C2F0E94FA
:10297000DA1B32C081E00E94EF1B123068F182E066
:102980000E94EF1B29C0DD2331F0112391F2802F2B
:102990000E94CD1121C0112399F2093349F49FEF10
:1029A000E7EEF3E09150E040F040E1F700C00000B6
:1029B000802F0E94771210C04C2F4F70602FC701DC
:1029C0000E9421090E94EF180FC04C2F4F70602FFA
:1029D000C7010E94240908C088EF8C0D843020F4C0
:1029E0000E9400100E94A208DD20C9F00E94491B2D
:1029F00080FD15C0F70112820E94431B0E94DE1960
:102A0000C7010E9430150E94431BDF91CF911F9197
:102A10000F91FF90EF90DF90CF900C94FF19DF9112
:102A2000CF911F910F91FF90EF90DF90CF9008957D
:102A30000F931F93CF93DF93EC01688179818A8193
:102A40000E94201B8C010E947B1A0E946C19B80105
:102A5000CE010E940013DF91CF911F910F91089535
:102A6000CF93DF93EC01988189812B813C81232BCB
:102A700031F08F3F31F481E09F3F19F403C081E0D2
:102A800001C080E080FD19C0CE010E94BB08811109
:102A90000CC00E944D1B882381F08A81882369F035
:102AA00082E0DF91CF910C94EF1BCE010E941815AC
:102AB000CE01DF91CF910C947408DF91CF910895EE
:102AC000882321F00E946A1B0C94A51B089588237B
:102AD00021F00E94701B0C94A51B08950E94771B87
:102AE0000E94871B0E94A51B0E9467230E94BB2196
:102AF00080E090E00E946F1080E090E00C948510E0
:102B000080910001909101010E94BA1D0C946E15F4
:102B10000E94671B0C948015E92FE295EF704E2FF1
:102B200050E0FA013297EE30F105B0F4EA59FF4F68
:102B30000C94992B803F91F018F4883E68F40EC0F5
:102B4000843F51F40BC0883E48F0813F29F406C011
:102B500093FB882780F9089580E0089581E0089527
:102B60000E94151B0E948C150895CF93DF9300D00F
:102B700000D01F92CDB7DEB70F900F900F900F903F
:102B80000F90DF91CF910895CF93DF9300D000D0C5
:102B900000D0CDB7DEB726960FB6F894DEBF0FBED5
:102BA000CDBFDF91CF9108951F93CF93DF93C09155
:102BB000FF0116E080910002C81799F0D0E01C9F39
:102BC000F0011D9FF00D1124EF5FFD4F40815181F9
:102BD00062817381848195810E94C4152196C7709A
:102BE000E9CFDF91CF911F9108954091310250912B
:102BF00032026091330270913402809135029091DB
:102C000036020C94C4150F931F93CF93DF938091DA
:102C1000360282958F7009F05DC08091330288235F
:102C200009F458C08091FF011091000260913102B7
:102C300070913202C0913402D091350291E06F3F21
:102C400009F090E0292F06E0811709F443C020978E
:102C500021F07F3F21F030E003C031E001C0322F8E
:102C600090E030FD34C0089FF001099FF00D112461
:102C7000DF01AF5FBD4F11963C911197371327C00D
:102C80003C91361324C012963C91129731111FC00B
:102C900013964D915C9114974C1B5D0B483C51056C
:102CA000B0F4809136028F70806180933602EA5FC3
:102CB000FD4F80818F708061808381E392E00E946C
:102CC0003015DF91CF911F910F910C94D41501967F
:102CD0008770BACFDF91CF911F910F9108959F9286
:102CE000AF92BF92CF92DF92EF92FF920F931F931A
:102CF000CF93DF93CDB7DEB761970FB6F894DEBF01
:102D00000FBECDBF8C0185E0F801DE011D9601905C
:102D10000D928A95E1F7F80140815181E28090910E
:102D20003102609132022091340230913502211536
:102D3000310531F06F3F31F481E09F3F19F403C05A
:102D400081E001C080E0F82FF1709F2E80FD46C128
:102D5000F801A380B48081E3C82E82E0D82EF090E1
:102D60003302F501E21BF30BFF2009F4DFC0809171
:102D70003602E83CF10508F09BC0282F207F09F0BF
:102D800052C0561313C0491311C0FE2CE1100EC0DF
:102D90008F708061809336020E94F515C6010E94F3
:102DA000301580913602F801858358C1AB2831F087
:102DB0005F3F31F481E04F3F19F403C081E001C06F
:102DC00080E080FD03C081E08E2502C080E090E0BD
:102DD000F82FF170FF2E80FF1CC08091FF01209121
:102DE000000236E0821709F417C190E0389FF00125
:102DF000399FF00D1124EF5FFD4F6181561306C01E
:102E00006081461303C06281E61203C00196877099
:102E1000E9CFFE2CEE2009F421C1809136028160B9
:102E2000809336025AC0561306C0491304C0E110FD
:102E300002C0F8019FC04D875E878D859E850E94E8
:102E4000B015882379F1EE2069F120913602822FA6
:102E500082958F7090E0029774F08091310290918A
:102E6000320298878F831986BB86AA862C87CE016B
:102E700007960E94301586E0F801A1E3B2E00190C8
:102E80000D928A95E1F70E9403160E94F5150DC078
:102E9000561729F14D875E878D859E850E94B01556
:102EA00081112CC0C8010E943015FF24F394D6C0B4
:102EB000282F207F69F77A2DB98AA88A6E2D8989F3
:102EC0000E94B51581E392E00E94301586E0F6017C
:102ED00011928A95E9F70E94F515F12CBFC04913AC
:102EE000D9CFE110D7CFF8018583C8010E943015F2
:102EF00086E0F60111928A95E9F7B0C0EE2091F2D2
:102F000020913602822F82958F7090E002970CF408
:102F1000B2CF80913102909132029A8389831B82D1
:102F2000BD82AC822E83CE010196A3CFE83CF10591
:102F300008F047C0FE2CEE2009F4B4CF561330C081
:102F400049132EC02091360220FD21C0822F829588
:102F50008F70482F50E041155105C9F0F8012583C5
:102F60004F30510541F08F5F982F9295907F822FBF
:102F70008F70892B8583C8010E94301586E0F80187
:102F8000A1E3B2E001900D928A95E1F742C086E09C
:102F9000F801A1E3B2E001900D928A95E1F75EC0DD
:102FA0004D875E878D859E850E94B015811163CF08
:102FB00080913602816080933602C8010E943015EC
:102FC0004DC07A2DB98AA88A6E2D89890E94B515BF
:102FD00086E0F60111928A95E9F71BC0EE2009F40C
:102FE00061CF4D875E878D859E850E94B015F82E36
:102FF000882309F457CF86E0F801A1E3B2E00190FD
:103000000D928A95E1F781E392E00E94C7110E9438
:1030100003160E94F51522C04D875E878D859E851B
:103020000E94151B292F22952F70223028F49F70A3
:1030300039F0811105C00BC0243028F49F7049F489
:10304000805E883020F0C8010E9430159F2CF92C3A
:1030500005C0F8019581907F99F7F9CF8F2D619682
:103060000FB6F894DEBF0FBECDBFDF91CF911F9199
:103070000F91FF90EF90DF90CF90BF90AF909F9017
:1030800008951F93CF93DF93CDB7DEB72C970FB67C
:10309000F894DEBF0FBECDBF4F83588769877A870C
:1030A0008B879C87CE0107960E946F168823D1F0EC
:1030B0009F8188852A853B85232B31F08F3F31F412
:1030C00081E09F3F19F403C081E001C080E080FDF2
:1030D00047C04F81588569857A858B859C850E947C
:1030E000C4153EC086E0FE013796DE0111960190C0
:1030F0000D928A95E1F7FF81E8856A857B856115E8
:10310000710531F0EF3F31F481E0FF3F19F403C066
:1031100081E001C080E080FD23C02091000230E00A
:10312000C9010196877099274091FF0150E08417EB
:103130009507F1F1F983EA837D836C8396E0929F92
:10314000D001939FB00D1124AF5FBD4FFE013196AA
:1031500001900D929A95E1F7809300020E94D41598
:1031600016E08091FF0190910002891771F1189F7C
:10317000C00111248F5F9D4F0E946F16882329F193
:10318000E091FF011E9FF0011124EF5FFD4F408190
:10319000518162817381848195810E94C4158091DF
:1031A000FF0190E00196877099278093FF01D9CFA6
:1031B0000E948815109200021092FF01E1E3F2E0F4
:1031C00086E0DF011D928A95E9F72C960FB6F894F8
:1031D000DEBF0FBECDBFDF91CF911F910895EF925B
:1031E000FF920F931F93CF93DF938C01892B09F4E8
:1031F0006CC0F12CEE24E394E8012196F80184914F
:10320000843740F4843008F051C0813081F082303E
:1032100019F15BC0853709F444C0A8F19CE7980F09
:10322000903708F052C08F770E94771241C00E5F2E
:103230001F4FFE01849190E2980F983050F48770F0
:10324000FE2D01C0FF0F8A95EAF78F2F0E947A1B8F
:1032500014C00E94CD112DC00E5F1F4FFE0184913E
:1032600090E2980F983060F48770FE2D01C0FF0F38
:103270008A95EAF78F2F0E94801B0E94A51B19C018
:103280000E94771216C00E5F1F4FFE01C491CC231F
:1032900081F08FE99FE00197F1F700C00000C15075
:1032A000F6CF0E5F1F4FFE01F49003C00E94CD11B8
:1032B0008E018F2D882309F49FCFEFE9FFE031972E
:1032C000F1F700C000008150F5CFDF91CF911F9141
:1032D0000F91FF90EF900895089508950C946D1943
:1032E0000C946E190E9470196093720270937302AD
:1032F00080937402909375020C946E150C9472195D
:103300000F931F9300917202109173022091740227
:1033100030917502602B712B822B932B1F910F9193
:103320000C9472190F931F93009172021091730203
:1033300020917402309175026023712382239323BC
:103340001F910F910C9472190F931F9300917202A9
:1033500010917302209174023091750260277127D9
:10336000822793271F910F910C9472190C946D1959
:103370000E94B61960936E0270936F028093700280
:10338000909371020C946E1560E070E0CB010C9488
:10339000B8190F931F9341E050E060E070E08A019C
:1033A0009B0104C0000F111F221F331F8A95D2F703
:1033B000C901B8011F910F910C94B8190F931F9375
:1033C00041E050E060E070E004C0440F551F661F0C
:1033D000771F8A95D2F780916E0290916F02A0912B
:1033E0007002B09171028A019B01082B192B2A2BC4
:1033F0003B2BC901B8011F910F910C94B8190F9381
:103400001F9341E050E060E070E004C0440F551F9E
:10341000661F771F8A95D2F74095509560957095F5
:1034200080916E0290916F02A0917002B091710232
:103430008A019B01082319232A233B23C901B801D0
:103440001F910F910C94B8190F931F9341E050E016
:1034500060E070E004C0440F551F661F771F8A9517
:10346000D2F780916E0290916F02A0917002B0919C
:1034700071028A019B01082719272A273B27C901C6
:10348000B8011F910F910C94B8190F931F930091DD
:103490006E0210916F022091700230917102602BC8
:1034A000712B822B932B1F910F910C94B8190F93B2
:1034B0001F9300916E0210916F0220917002309163
:1034C000710260237123822393231F910F910C9427
:1034D000B8190F931F9300916E0210916F02209103
:1034E00070023091710260277127822793271F9104
:1034F0000F910C94B81908952EE0929F800D11241D
:10350000E82FE695E695E695877051E001C0550FE6
:103510008A95EAF785E0E89FF0011124E95CFD4F08
:1035200020E030E070E04081CB01022E02C0969591
:1035300087950A94E2F781708195842785238427F3
:1035400081932F5F3F4F2530310569F708952EE0B5
:10355000929F800D1124682F669566956695982F29
:10356000977085E0689FB001112440E050E080E052
:10357000FB01E40FF51FE95CFD4F208130E0092ECF
:1035800002C0369527950A94E2F721703327042E5E
:1035900001C0220F0A94EAF7822B4F5F5F4F45303C
:1035A000510531F70895BF92CF92DF92EF92FF92CB
:1035B0000F931F93CF93DF938C01C0906E02D09036
:1035C0006F02E0907002F09071028091720290910F
:1035D0007302A0917402B0917502C82AD92AEA2A0E
:1035E000FB2ACFE1D0E0D701C6010C2E04C0B6956E
:1035F000A795979587950A94D2F780FD04C02197E7
:1036000090F7B12C07C0BC2EB8018C2F0E94400946
:103610000197A9F38B2DDF91CF911F910F91FF900F
:10362000EF90DF90CF90BF900895CF93DF93EC01A0
:103630000E94D31ABE010E944009DF91CF910895E4
:103640001F93CF93DF93EB019091FE01992321F01B
:10365000CB010E94151B13C0882349F0CB010E94A7
:10366000D31A182F682FCE010E947C1A04C0CB01F8
:103670000E94A71A182FBE01812F0E944009DF91D6
:10368000CF911F91089580917602859585958595B6
:1036900008958091760287700895909176029770D0
:1036A00081E009F480E0089580919A020895909154
:1036B0009A02892B80939A020895809590919A029C
:1036C000892380939A02089580939A020895109214
:1036D0009A02089590919902892B809399020895F6
:1036E0008095909199028923809399020895109270
:1036F0009902089590919802892B809398020895D9
:103700008095909198028923809398020895109251
:103710009802089580917702089508950C948D1B66
:103720000C948E1B90917702981721F0809377026A
:103730000C94901B089580917702882329F01092B1
:10374000770280E00C94901B0895E0910001F091C5
:10375000010180919A028083E0910001F0910101C2
:10376000908180919902892B8083E0910001F091F2
:103770000101908180919802892B8083809177024A
:10378000882381F0E0910001F09101019081892B63
:10379000808380910001909101010E94EC1C8111B5
:1037A0000E949B1B80910001909101010C940C10D0
:1037B0000C948D1B98E0899F90011124262B209357
:1037C00076020E94DE198091760285958595859511
:1037D0000C94D81B1092760280E00C94D81B209198
:1037E00076028095822380937602982F977079F4E1
:1037F00030E0482F082E000C550B2417350739F000
:103800008595859585950E94FF190C94EA1B08956E
:10381000909385018093840108958295982F9373E6
:1038200044E0949F900111248C7C86958695282BEA
:10383000822F8575880F2A7A2695822B0895CF933B
:10384000DF93D92F0E940D1CC82F8D2F0E940D1CB5
:103850002C2F30E0322F2227A901482BCA01DF91FB
:10386000CF91089580E090E00E94C12B21E08C3E32
:103870009E4F09F020E0822F089582E090E00C94A2
:10388000B92B682F82E090E00C94C72B83E090E086
:103890000C94B92B682F83E090E00C94C72BCF9346
:1038A00084E090E00E94B92BC82F81E290E00E9452
:1038B000B92B2C2F30E0A901582BCA01CF910895C4
:1038C000CF93C92F682F84E090E00E94C72B6C2F04
:1038D00081E290E0CF910C94C72B86E090E00C94AD
:1038E000B92B682F86E090E00C94C72BAB01BC018C
:1038F0008FE090E00C94D92BAB01BC0183E190E008
:103900000C94D92B60E070E0CB010C947C1C60E03F
:1039100070E0CB010E94761C0C94821C6CEE7EEF52
:1039200080E090E00E94E52B60E082E090E00E9461
:10393000C72B60E083E090E00E94C72B10927202D8
:1039400010927302109274021092750260E084E08B
:1039500090E00E94C72B60E081E290E00E94C72BBC
:1039600060E085E090E00E94C72B60E086E090E098
:103970000E94C72B6FEF87E090E00E94C72B40E0CA
:1039800050E0BA0188E090E00E94D92B60E08DE021
:1039900090E00E94C72B40E050E0BA0188E190E03F
:1039A0000E94D92B60E087E190E00E94C72B40E0A5
:1039B00050E0BA018CE190E00E94D92B60E080E2F7
:1039C00090E00E94C72B0C94871C0C948E1C682FCF
:1039D0008EE090E00C94C72BFC013296809112018E
:1039E000882331F08091DD0287FF02C09EE101C093
:1039F00096E080E0915028F021912223D9F38F5F47
:103A0000F9CF0895662351F1209112012223E9F0A4
:103A10002091DD0227FF19C0462F46954695469511
:103A20004E31E0F4677021E030E002C0220F331F16
:103A30006A95E2F7FC01E40FF11D828190E02823F2
:103A4000392381E0232B69F409C0FC0132960896E2
:103A50002191621729F0E817F907D1F780E008955E
:103A600081E008959C01FC0132969FEF80E0419136
:103A7000461789F09F3F19F4411101C0982F8F5FBD
:103A80008630A9F79F3F39F0F901E90FF11D97FD45
:103A9000FA956283089508959C012A5F3F4FFC01C7
:103AA0004281461301C01282019682179307B9F72B
:103AB0000895262F2695269526952E3170F4FC0123
:103AC000E20FF11D677021E030E001C0220F6A951E
:103AD000EAF78281282B2283089580919B0280FF40
:103AE0000CC01F926F938CE794E09F938F930E947A
:103AF00074040F900F900F900F900895262F269525
:103B0000269526952E3178F4FC01E20FF11D6770A1
:103B100021E030E001C0220F6A95EAF7209582810A
:103B200028232283089580919B0280FF0CC01F925E
:103B30006F938EE594E09F938F930E9474040F908F
:103B40000F900F900F90089520911201222329F0D9
:103B50002091DD0227FD0C94591D0C94321D2091FB
:103B60001201222329F02091DD0227FD0C947E1DF5
:103B70000C944C1D20911201FC013296222331F04D
:103B80008091DD0287FF02C08EE101C086E0DF0187
:103B90001D928A95E9F7089508950C94CC1DCF9352
:103BA0000E94B0040E9409050E94CD1DC0E08C2F28
:103BB0000E94A305892B29F4CF5FC630C1F780E0AE
:103BC00001C081E0CF9108950C94CC1D0C94E41DAC
:103BD0000E94E61D8091E302843061F110929C0204
:103BE00020E488E190E00FB6F894A89580936000F7
:103BF0000FBE2093600080E00E94AA0C80E00E942B
:103C0000A2080E94E61D83B7817F846083BF83B7CB
:103C1000816083BF7894889583B78E7F83BF0FB60A
:103C2000F894A8958091600088618093600010925C
:103C300060000FBE08950C94CC1D0E9488150E9450
:103C40002F0B0E9400100E94A2080C941B1E1F92B2
:103C50000F920FB60F9211248F939F93AF93BF9340
:103C600080919C02811113C08091D9029091DA0257
:103C7000A091DB02B091DC024196A11DB11D8093A1
:103C8000D9029093DA02A093DB02B093DC02BF91D9
:103C9000AF919F918F910F900FBE0F901F9018952D
:103CA00082E084BD93E095BD9AEF97BD80936E004E
:103CB00008952FB7F8948091D9029091DA02A091DB
:103CC000DB02B091DC022FBF08959C014FB7F8943E
:103CD0008091D9029091DA02A091DB02B091DC02CE
:103CE0004FBF821B930B089578941F920F920FB6CB
:103CF0000F9211248F939F93AF93BF938091D9021A
:103D00009091DA02A091DB02B091DC020196A11D34
:103D1000B11D8093D9029093DA02A093DB02B09395
:103D2000DC02BF91AF919F918F910F900FBE0F90CA
:103D30001F90189581E08093E00080E28093D80086
:103D40001092C9008FE19EE40197F1F700C00000D6
:103D500087E090EBDC018093EC029093ED02A0935E
:103D6000EE02B093EF029CE088E10FB6F894A895BC
:103D7000809360000FBE90936000FFCFAF92BF9220
:103D8000CF92DF92EF92FF920F931F93CF93C0E0F9
:103D9000CC24C394D12CE82EF12C8C2F0E94A305A7
:103DA0005C0100E010E0C601002E02C0880F991FE0
:103DB0000A94E2F78A219B21892B31F40F5F1F4F70
:103DC0000E30110581F70AC0602F7C2F80E00E9421
:103DD0002509E816F90691F781E004C0CF5FC630E7
:103DE000E1F680E0CF911F910F91FF90EF90DF906F
:103DF000CF90BF90AF900895CF93C82F8CE20E94D0
:103E0000BE1E882321F08C2FCF910C94BE1E80E023
:103E1000CF910895CF930E94321C811102C00E945D
:103E2000E51C81EA94E00E94DB03C5E6C15049F03D
:103E30000E9409058FE39CE90197F1F700C000009B
:103E4000F5CF8AE994E00E94DB0389E20E94FC1E20
:103E5000811120C18AE20E94FC1E81110E94E51C92
:103E600085E00E94FC1E81110E949A1E0E943D1C4A
:103E700080939B0287E00E94FC1E8823A9F18BE1BE
:103E80000E94FC1E882351F080919B0281FB222717
:103E900020F991E0922790FB81F90EC08EE00E94FC
:103EA000FC1E882361F080919B0282FB222720F96F
:103EB00091E0922790FB82F980939B0215C080E1EC
:103EC0000E94FC1E90919B02882341F093FB2227C5
:103ED00020F981E0822780FB93F904C0892F809527
:103EE00080FB90F990939B0280919B020E94411C61
:103EF0000E944F1C9093DE028093DD0280EE0E94B0
:103F0000FC1E882341F08091DD02982F909590FB54
:103F100080F98093DD0289E30E94FC1E882359F01A
:103F20008091DD0281FB222720F991E0922790FB0E
:103F300081F98093DD0282EE0E94FC1E882359F0F5
:103F40008091DD0282FB222720F991E0922790FBED
:103F500082F98093DD0286EE0E94FC1E882359F0D0
:103F60008091DD0283FB222720F991E0922790FBCC
:103F700083F98093DD0283EE0E94FC1E882359F0B2
:103F80008091DD0284FB222720F991E0922790FBAB
:103F900084F98093DD0285E30E94FC1E882359F09A
:103FA0008091DD0285FB222720F991E0922790FB8A
:103FB00085F98093DD0281E30E94FC1E882359F07D
:103FC0008091DD0286FB222720F991E0922790FB69
:103FD00086F98093DD0281E10E94FC1E882359F05E
:103FE0008091DD0287FB222720F991E0922790FB48
:103FF00087F98093DD028091DD029091DE020E94BC
:10400000601C87E20E94FC1EC82F8EE10E94FC1EED
:104010008111C2608FE10E94FC1E8111C46080E2A8
:104020000E94FC1E8111C86081E20E94FC1E811169
:10403000C06182E20E94FC1E8111C06283E20E9484
:10404000FC1E8111C06484E20E94FC1E882311F0D2
:10405000C06802C0CC2329F08C2F0E944A1C6C2F10
:1040600003C00E94461C682F70E080E090E00E9430
:104070007E198FE00E94FC1E882319F081E00E94C7
:10408000E71C85E10E94FC1E882321F080E0CF918F
:104090000C94E71CCF9108958091A60280FF0BC07D
:1040A0006091060185E0689FB001112475956795C0
:1040B000759567952BC081FF09C06091060185E069
:1040C000689FB00111247595679520C082FF07C0D5
:1040D0006091060185E0689FB001112417C090919E
:1040E000A5029923D1F060910501961788F72091D8
:1040F000060185E0289F90011124929FA001939FC3
:10410000500D112470E0CA010E94632B60387105C4
:1041100040F46115710519F406C065E070E0862F62
:1041200008958FE7089581E008958091A60280FFA9
:1041300008C06091030170E0759567957595679566
:1041400021C081FF06C06091030170E075956795FD
:1041500019C082FF04C06091030170E010C090910B
:10416000A502992399F0609102019617A0F780911A
:104170000301899FC001112470E00E94632B603805
:10418000710540F46115710519F406C061E070E035
:10419000862F08958FE7089581E00895803F21F4E8
:1041A0000E944C20819504C0813F29F40E944C203C
:1041B0008093AA020895823F21F40E944C208195A9
:1041C00004C0833F29F40E944C208093A9020895E3
:1041D000893F19F40E94952005C08A3F31F40E945E
:1041E000952081958093AB0208958B3F21F40E9426
:1041F0009520819504C08C3F29F40E9495208093DE
:10420000AC020895843F21F48091A802816017C018
:10421000853F21F48091A802826011C0863F21F47D
:104220008091A80284600BC0873F21F48091A8028E
:10423000886005C0883F31F48091A8028061809336
:10424000A80208958D3F21F48091A60281600BC0E1
:104250008E3F21F48091A602826005C08F3F29F431
:104260008091A60284608093A6020895803F39F46D
:104270008091AA0287FF6CC01092AA0269C0813F98
:1042800029F48091AA021816BCF362C09091A90289
:10429000823F29F497FF5CC01092A90259C0833F66
:1042A00019F41916CCF354C0893F41F48091AB0244
:1042B00018160CF04DC01092AB024AC08A3F29F488
:1042C0008091AB0287FF44C0F6CF8B3F39F48091D9
:1042D000AC0287FF3DC01092AC023AC08C3F29F47B
:1042E0008091AC021816BCF333C0843F21F4809156
:1042F000A8028E7F17C0853F21F48091A8028D7F90
:1043000011C0863F21F48091A8028B7F0BC0873FAC
:1043100021F48091A802877F05C0883F31F4809105
:10432000A8028F7E8093A80213C08D3F21F4809154
:10433000A6028E7F0BC08E3F21F48091A6028D7F56
:1043400005C08F3F29F48091A6028B7F8093A6023F
:104350008091A90281110EC08091AA0281110AC028
:104360008091AB02811106C08091AC02811102C024
:104370001092A502089580919B0283FF7EC08DED6F
:1043800094E00E94DB038091A8021F928F9388ED36
:1043900094E09F938F930E94740486ED94E00E94B2
:1043A000DB038091A902282F082E000C330B3F93CA
:1043B0008F9383ED94E09F938F930E94740481ED1B
:1043C00094E00E94DB038091AA02282F082E000CA3
:1043D000330B3F938F938EEC94E09F938F930E94C7
:1043E00074048CEC94E00E94DB038091AB02282FD4
:1043F000082E000C330B3F938F9389EC94E09F932E
:104400008F930E94740487EC94E00E94DB038091F8
:10441000AC02282F082E000C330B3F938F9384ECB3
:1044200094E09F938F930E94740481EC94E00E9427
:10443000DB038091A5021F928F938EEB94E09F93F4
:104440008F930E9474048CEB94E00E94DB038091B4
:10445000A6021F928F9389EB94E09F938F930E9403
:10446000740486EB94E00E94DB038DB79EB74C96F4
:104470000FB6F8949EBF0FBE8DBF87EA92E00E94F0
:1044800061100E94591E9093A4028093A302089584
:10449000CF93DF9300D000D000D0CDB7DEB786E059
:1044A000E7EAF2E0DE01119601900D928A95E1F7BC
:1044B0008091A902811105C08091AA02882309F484
:1044C0007AC08091A1029091A2020E94651EAC0167
:1044D0009091A502992339F02091070130E024172B
:1044E000350758F068C020919E028AE0289F90010D
:1044F00011242417350718F05EC09F3F19F09F5F05
:104500009093A5021092AB021092AC028091A90286
:10451000181624F40E944C208093A9028091A902CD
:1045200087FF05C00E944C2081958093A90280914D
:10453000AA02181624F40E944C208093AA028091AB
:10454000AA0287FF05C00E944C2081958093AA0291
:104550003091A9023323E1F02091AA022223C1F075
:1045600045EB3403C0011124992319F09093A9025B
:1045700003C081E08093A90235EB2303C00111241D
:10458000992319F09093AA0203C081E08093AA02B4
:104590000E94BB218091A3029091A4029093A20259
:1045A0008093A10286E0FE013196A7EAB2E0019075
:1045B0000D928A95E1F78091AB02811105C080913F
:1045C000AC02882309F47AC080919F029091A002E6
:1045D0000E94651EAC019091A502992339F02091AB
:1045E000040130E02417350758F068C020919D027F
:1045F0008AE0289F900111242417350718F05EC027
:104600009F3F19F09F5F9093A5021092A90210920C
:10461000AA028091AB02181624F40E949520809380
:10462000AB028091AB0287FF05C00E949520819567
:104630008093AB028091AC02181624F40E9495205E
:104640008093AC028091AC0287FF05C00E94952048
:1046500081958093AC023091AB023323E1F020913D
:10466000AC022223C1F045EB3403C001112499238D
:1046700019F09093AB0203C081E08093AB0235EB5D
:104680002303C0011124992319F09093AC0203C0B5
:1046900081E08093AC020E94BB218091A3029091A3
:1046A000A4029093A00280939F0286E0FE013196BF
:1046B000A7EAB2E001900D928A95E1F726960FB62F
:1046C000F894DEBF0FBECDBFDF91CF910895E7EA2A
:1046D000F2E086E0DF011D928A95E9F71092A502CB
:1046E0001092A60208958091D00208959FB7F89481
:1046F0001092AF029FBF9091E302943009F057C02F
:104700009091E9009F703091EC00232F217030FDD3
:1047100020E8922B23E02093E9002091EB0020FF7A
:1047200043C02091EE0027FF3FC02091AD0222231D
:1047300021F02091E80025FF37C01092AD0226E05D
:104740003091E80035FD15C03091E302343061F559
:104750003091EB0035FD28C0215021F481E0809399
:10476000AD0222C0EFE9FFE03197F1F700C0000091
:10477000E7CF8093F1008091E80085FD0AC0809129
:10478000E80080FFFCCF8091E8008E778093E800FE
:1047900006C08FB7F89421E02093AF028FBF9F70BF
:1047A0009093E90080E008959F709093E9008FEF67
:1047B0000895CF93DF9300D01F92CDB7DEB79091CD
:1047C000E302943019F589837B836A8382E08093C6
:1047D000E9008FEF9091E800815095FD06C095EDBE
:1047E0009A95F1F700008111F5CF8091E80085FFDF
:1047F0000DC040E050E063E070E0CE0101960E9401
:1048000096268091E8008E778093E8000F900F90B5
:104810000F90DF91CF910895CF93DF93EC010E9429
:104820007926823011F0843031F4BE0184E0DF91CA
:10483000CF910C94D923DF91CF910895BC0183E0EF
:104840000C94D923CF93DF93EC010E947926823018
:1048500011F08430F9F482E08093E9008FEF9091B9
:10486000E800815095FD06C095ED9A95F1F700009E
:104870008111F5CF8091E80085FF0CC040E050E049
:1048800066E070E0CE010E9496268091E8008E7767
:104890008093E800DF91CF910895CF93DF93EC01EF
:1048A0000E947926823011F08430D9F5809112016E
:1048B000882339F08091DD0287FF03C060E282E047
:1048C00002C068E081E08093E9008FEF9091E800FA
:1048D000815095FD06C095ED9A95F1F70000811184
:1048E000F5CF8091E80085FF1CC0809112018111F5
:1048F00005C040E050E068E070E003C070E040E0D8
:1049000050E0CE010E9496268091E8008E77809339
:10491000E80080E2FE01A0EBB2E001900D928A95E2
:10492000E1F7DF91CF91089585E295E00E94DB03E6
:104930008091E202811109C00E9427280E948428E8
:104940008091E20084608093E200089581E295E026
:104950000E94DB031092E20208958DE195E00C9431
:10496000DB0389E195E00C94DB0385E195E00E948F
:10497000DB030C941D1E2091AE022F5F822F62E399
:104980000E94432B992319F02093AE0208951092B0
:10499000AE028091AF02882371F18091E3028430EE
:1049A00041F58091E9008F702091EC00922F917079
:1049B00020FD90E8892B93E09093E9009091EB0023
:1049C00090FF14C09091EE0097FF10C09091E80006
:1049D00095FF03C01092F100F9CF9091E80090FF8D
:1049E00005C09091E8009E779093E8008F708093C7
:1049F000E9001092AF02089542E061EC81E00E946C
:104A0000A02742E261EC82E00E94A02742E261EC32
:104A100083E00C94A0278091E502833009F460C004
:104A200030F4813071F0823009F499C008958A30F1
:104A300009F485C08B3009F46BC0893009F0A7C038
:104A400020C08091E402813A09F0A1C08091E80081
:104A5000877F8093E8008091E8029091E902892B9A
:104A600021F460E280EB92E003C060E080E090E03F
:104A700070E00E94E1268091E8008B778093E80047
:104A800008958091E402813209F081C08091E802AA
:104A90009091E902029708F07AC08091E800877F40
:104AA0008093E8008091E80082FD05C08091E302D8
:104AB0008111F8CF6CC02091F3008091F20090E05A
:104AC000922B029729F48091F1008B7F813021F4A1
:104AD0008091F1008093D0028091E8008B7753C0E1
:104AE0008091E402813A09F052C08091E8029091ED
:104AF000E902892B09F04BC08091E800877F809301
:104B0000E8008091E80080FFFCCF8091120136C060
:104B10008091E4028132D9F58091E8029091E90216
:104B2000892BA9F58091E800877F8093E8000E9497
:104B3000D5278091E602809312010C94881580910C
:104B4000E402813221F58091E800877F8093E800BC
:104B50000E94D5278091E7028093D1020895809129
:104B6000E402813AA1F48091E800877F8093E80015
:104B70008091E80080FFFCCF8091D1028093F1000A
:104B80008091E8008E778093E8000C94D5270895F3
:104B900084B7877F84BF0FB6F894A8958091600092
:104BA000886180936000109260000FBE90E080E802
:104BB0000FB6F89480936100909361000FBE0E943D
:104BC000AB100E9427280E9484288091E200846014
:104BD0008093E20086E793E20E94081C78940E948A
:104BE000182B0E94B51088E091E00E94FB0F84E032
:104BF00095E00E94DB038091E302853089F480E038
:104C000095E00E94DB030E94E81D8091E102882369
:104C100091F30E94CF1D882371F30E948026EBCF71
:104C20000E94E710E8CF0C941526292F3327233054
:104C30003105C9F060F42130310581F022303105B1
:104C400009F047C08BE590E021E835E046C021320D
:104C5000310511F12232310561F13BC082E190E072
:104C60002CED35E03AC099278130910561F040F094
:104C70008230910559F0039761F5E9E2F5E008C04B
:104C8000EDE7F5E005C0E9E5F5E002C0EFE2F5E0AB
:104C9000849190E09F0121C063307105D0F4660FCC
:104CA000771FFB01E258FE4F2081318189E090E0BF
:104CB00014C06330710568F4FB01EE0FFF1FE85864
:104CC000FE4F20813181FB01EB58FE4F808190E047
:104CD00004C080E090E020E030E0FA0131832083DE
:104CE00008958091E302843011F081E0089582E01C
:104CF00008958091D202811102C00C94712608950A
:104D000080E189BD82E189BD09B400FEFDCF8091BB
:104D1000D8008F7D8093D8008091E00082608093DE
:104D2000E0008091E00081FDFCCF0895CF92DF92FA
:104D3000EF92FF920F931F93CF93DF93EC018B01C0
:104D40007A010E94F427811133C0E114F10439F093
:104D5000F70180819181081B190BC80FD91FC12C45
:104D6000D12C0115110519F18091E80085FD16C0BF
:104D70008091E8008E778093E800E114F10449F017
:104D8000F70180819181C80ED91ED182C08285E051
:104D90000FC00E94F427882321F30AC089918093D1
:104DA000F10001501109FFEFCF1ADF0ADACF80E0DE
:104DB000DF91CF911F910F91FF90EF90DF90CF90F7
:104DC00008952091EA023091EB022617370748F048
:104DD0006115710539F42091E8002E772093E800E1
:104DE00001C0B901FC0120E06115710579F18091E4
:104DF000E3028823F1F18530F1F18091E80083FD31
:104E00003CC08091E80082FD2EC08091E80080FFC8
:104E1000EBCF2091F3008091F20090E0922B61158E
:104E2000710551F08830910538F421912093F100FB
:104E3000615071090196F3CF21E0089709F020E055
:104E40008091E8008E778093E800CECF2111CFCFFC
:104E50000AC08091E302882361F0853061F080917F
:104E6000E80083FD0AC08091E80082FFF2CF80E075
:104E7000089582E0089583E0089581E008952091E7
:104E8000EA023091EB022617370748F061157105E9
:104E900039F42091E8002E772093E80001C0B90191
:104EA000FC0120E06115710591F18091E3028823F6
:104EB00009F440C0853009F43FC08091E80083FDCB
:104EC0003DC08091E80082FD2FC08091E80080FF06
:104ED000E9CF2091F3008091F20090E0922B6115D0
:104EE000710559F08830910540F424912093F10028
:104EF0003196615071090196F2CF21E0089709F0CF
:104F000020E08091E8008E778093E800CBCF2111DC
:104F1000CCCF0AC08091E302882361F0853061F034
:104F20008091E80083FD0AC08091E80082FFF2CF03
:104F300080E0089582E0089583E0089581E0089577
:104F4000982F973068F59093E900981739F0709191
:104F5000EC002091ED005091F00003C0242F762F3B
:104F600050E021FD02C09F5FECCF3091EB003E7F0F
:104F70003093EB003091ED003D7F3093ED003091A8
:104F8000EB0031603093EB007093EC002093ED0068
:104F90005093F0002091EE0027FDE5CF80E00895CA
:104FA0008F708093E90081E008958091E40287FF8B
:104FB00011C08091E80082FD05C08091E30281115B
:104FC000F8CF11C08091E8008B770BC08091E3028D
:104FD000882349F08091E80080FFF8CF8091E800B5
:104FE0008E778093E80008952091E4003091E500E9
:104FF00095E64091EC00842F817040FF23C08091A2
:10500000E80080FD1DC08091E302882399F085307F
:1050100099F08091EB0085FD11C04091E400509122
:10502000E5002417350729F3915011F09A01E1CFDB
:1050300084E0089582E0089583E0089581E0089572
:1050400080E008954091E80042FFDDCF08950E947E
:1050500095280E949D28E0EEF0E0808181608083A9
:10506000E8EDF0E080818F77808319BCA7EDB0E098
:105070008C918E7F8C9380818F7E80831092E20250
:1050800008950F931F93CF93DF930E9495280E945A
:105090009D28C8EDD0E088818F77888388818068DB
:1050A000888388818F7D888319BC1092E3021092D7
:1050B000DF021092E1021092E00200EE10E0F8012F
:1050C00080818B7F808388818160888342E060E07B
:1050D00080E00E94A027E1EEF0E080818E7F808357
:1050E000E2EEF0E08081816080838081886080834F
:1050F000F80180818E7F8083888180618883DF9141
:10510000CF911F910F910895E8EDF0E080818F7E9F
:105110008083E7EDF0E080818160808384E082BF5E
:1051200081E08093E2020C944128E8EDF0E0808178
:105130008E7F80831092E20008951092DA00109220
:10514000E10008951F920F920FB60F9211242F9332
:105150003F934F935F936F937F938F939F93AF93FF
:10516000BF93EF93FF938091E10082FF0BC080918A
:10517000E20082FF07C08091E1008B7F8093E10015
:105180000E94BB248091DA0080FF1FC08091D8006C
:1051900080FF1BC08091DA008E7F8093DA008091BF
:1051A000D90080FF0DC080E189BD82E189BD09B4CD
:1051B00000FEFDCF81E08093E3020E94942405C0AD
:1051C00019BC1092E3020E94A6248091E10080FFA6
:1051D00019C08091E20080FF15C08091E2008E7FAF
:1051E0008093E2008091E20080618093E2008091F0
:1051F000D80080628093D80019BC85E08093E302D8
:105200000E94B1248091E10084FF30C08091E200CF
:1052100084FF2CC080E189BD82E189BD09B400FE14
:10522000FDCF8091D8008F7D8093D8008091E100E0
:105230008F7E8093E1008091E2008F7E8093E20078
:105240008091E20081608093E2008091DF028823F8
:1052500011F084E007C08091E30087FD02C081E087
:1052600001C083E08093E3020E94B5248091E100B5
:1052700083FF29C08091E20083FF25C08091E10077
:10528000877F8093E10082E08093E3021092DF0247
:105290008091E1008E7F8093E1008091E2008E7F1B
:1052A0008093E2008091E20080618093E20042E01E
:1052B00060E080E00E94A0278091F00088608093E9
:1052C000F0000E94AD24FF91EF91BF91AF919F91AB
:1052D0008F917F916F915F914F913F912F910F909F
:1052E0000FBE0F901F9018951F920F920FB60F923E
:1052F00011242F933F934F935F936F937F938F93DB
:105300009F93AF93BF93CF93DF93EF93FF93C0919E
:10531000E900CF708091EC00D82FD17080FDD0E8EB
:105320001092E9008091F000877F8093F0007894DC
:105330000E94B8291092E9008091F0008860809363
:10534000F000CD2BCF70C093E900FF91EF91DF917A
:10535000CF91BF91AF919F918F917F916F915F910D
:105360004F913F912F910F900FBE0F901F90189566
:105370001F93CF93DF93CDB7DEB7AA970FB6F894FC
:10538000DEBF0FBECDBFE4EEF2E08091F10081936D
:1053900022E0EC3EF207C9F70E940B258091E8005D
:1053A00083FF2EC18091E4029091E502492F50E0E5
:1053B0004A30510508F024C1FA01EC58FF4F0C9413
:1053C000992B803821F0823809F01AC108C08091E9
:1053D000E0029091E102992389F082600FC08091F0
:1053E000E8028F70873008F00BC18093E90080914C
:1053F000EB0085FB882780F91092E9009091E80086
:10540000977F9093E8008093F1001092F100D1C053
:10541000282F2D7F09F0F4C0882319F0823061F025
:10542000EFC08091E602813009F0EAC0933009F0C4
:1054300080E08093E1022EC08091E60281112AC0B3
:105440008091E8028F702FEF280F263008F0D8C027
:105450008093E9002091EB0020FF1CC0933021F4E1
:105460008091EB00806214C09091EB00906190936A
:10547000EB0021E030E0A90102C0440F551F8A95DE
:10548000E2F74093EA001092EA008091EB00886016
:105490008093EB001092E9008091E800877F809371
:1054A000E8000E94D527ACC08111AAC01091E60285
:1054B0001F778091E3008078812B8093E3008091B7
:1054C000E800877F8093E8000E94D5278091E8005C
:1054D00080FFFCCF8091E30080688093E30011118E
:1054E00002C082E001C083E08093E30289C080585B
:1054F000823008F085C08091E6029091E7028C3DF1
:1055000053E0950779F583E08A838AE289834FB770
:10551000F894DE01139620E03EE051E2E32FF0E044
:1055200050935700E49120FF03C0E295EF703F5F76
:10553000EF708E2F90E0EA3010F0C79601C0C09651
:105540008D939D932F5F243149F74FBF8091E800E1
:10555000877F8093E8006AE270E0CE0101960E94A6
:10556000E12616C06091E8027091E902AE014F5F3A
:105570005F4F0E941326BC01892B09F441C0909112
:10558000E800977F9093E80089819A810E943F27E5
:105590008091E8008B778093E80032C0803881F5F5
:1055A0008091E800877F8093E8008091DF028093FC
:1055B000F1008091E8008E7772CF811121C0809137
:1055C000E6029091E70299270297D4F48091E800CF
:1055D000877F8093E8008091E6028093DF020E943B
:1055E000D5278091DF02811106C08091E30087FDFD
:1055F00002C081E001C084E08093E3020E94FC24A9
:105600008091E80083FF0AC08091E800877F809343
:10561000E8008091EB0080628093EB00AA960FB6C1
:10562000F894DEBF0FBECDBFDF91CF911F910895DB
:10563000CF938091E3028823A1F0C091E900CF705D
:105640009091EC00892F817090FD80E8C82B10921A
:10565000E9008091E80083FD0E94B829CF70C093D3
:10566000E900CF910895DB018F939F930E94AE2BA9
:10567000BF91AF91A29F800D911DA39F900DB29FEE
:10568000900D11240895991B79E004C0991F961775
:1056900008F0961B881F7A95C9F780950895AA1B74
:1056A000BB1B51E107C0AA1FBB1FA617B70710F00D
:1056B000A61BB70B881F991F5A95A9F7809590953F
:1056C000BC01CD01089597FB072E16F4009407D076
:1056D00077FD09D00E944F2B07FC05D03EF4909532
:1056E00081959F4F0895709561957F4F0895A1E230
:1056F0001A2EAA1BBB1BFD010DC0AA1FBB1FEE1F4C
:10570000FF1FA217B307E407F50720F0A21BB30B96
:10571000E40BF50B661F771F881F991F1A9469F712
:1057200060957095809590959B01AC01BD01CF016E
:105730000895EE0FFF1F0590F491E02D0994A29FAC
:10574000B001B39FC001A39F700D811D1124911D55
:10575000B29F700D811D1124911D08950E949F2BF1
:10576000A59F900DB49F900DA49F800D911D1124B5
:105770000895F999FECF92BD81BDF89A992780B519
:105780000895A8E1B0E042E050E00C94ED2B262F04
:10579000F999FECF92BD81BDF89A019700B4021627
:1057A00039F01FBA20BD0FB6F894FA9AF99A0FBED5
:1057B00008950396272F0E94C82B0E94C72B252FE0
:1057C0000E94C82B242F0C94C82B0196272F0E94CF
:1057D000C82B0C94C72BDC01CB01FC01F999FECF3F
:1057E00006C0F2BDE1BDF89A319600B40D92415069
:0A57F0005040B8F70895F894FFCF79
:1057FA0078022808643C071473234D2422241E24AB
:10580A000C2401E200E900EA00B500B600B700CDB9
:10581A00008301CC008A019201940121022302240F
:10582A00022502260227022A02B300B4006F007082
:10583A0000818283E200E900EA00B500B600B70001
:10584A00CD008301CC008A01920194012102230236
:10585A0024022502260227022A02B300B4006F009E
:10586A00700081828340BC22CC061006EE059305A7
:04587A00AC05C505AF
:00000001FF
